{
  "contractName": "NFT",
  "abi": [
    {
      "inputs": [],
      "stateMutability": "payable",
      "type": "constructor"
    },
    {
      "inputs": [
        {
          "internalType": "address",
          "name": "sender",
          "type": "address"
        },
        {
          "internalType": "uint256",
          "name": "tokenId",
          "type": "uint256"
        },
        {
          "internalType": "address",
          "name": "owner",
          "type": "address"
        }
      ],
      "name": "ERC721IncorrectOwner",
      "type": "error"
    },
    {
      "inputs": [
        {
          "internalType": "address",
          "name": "operator",
          "type": "address"
        },
        {
          "internalType": "uint256",
          "name": "tokenId",
          "type": "uint256"
        }
      ],
      "name": "ERC721InsufficientApproval",
      "type": "error"
    },
    {
      "inputs": [
        {
          "internalType": "address",
          "name": "approver",
          "type": "address"
        }
      ],
      "name": "ERC721InvalidApprover",
      "type": "error"
    },
    {
      "inputs": [
        {
          "internalType": "address",
          "name": "operator",
          "type": "address"
        }
      ],
      "name": "ERC721InvalidOperator",
      "type": "error"
    },
    {
      "inputs": [
        {
          "internalType": "address",
          "name": "owner",
          "type": "address"
        }
      ],
      "name": "ERC721InvalidOwner",
      "type": "error"
    },
    {
      "inputs": [
        {
          "internalType": "address",
          "name": "receiver",
          "type": "address"
        }
      ],
      "name": "ERC721InvalidReceiver",
      "type": "error"
    },
    {
      "inputs": [
        {
          "internalType": "address",
          "name": "sender",
          "type": "address"
        }
      ],
      "name": "ERC721InvalidSender",
      "type": "error"
    },
    {
      "inputs": [
        {
          "internalType": "uint256",
          "name": "tokenId",
          "type": "uint256"
        }
      ],
      "name": "ERC721NonexistentToken",
      "type": "error"
    },
    {
      "inputs": [
        {
          "internalType": "address",
          "name": "owner",
          "type": "address"
        }
      ],
      "name": "OwnableInvalidOwner",
      "type": "error"
    },
    {
      "inputs": [
        {
          "internalType": "address",
          "name": "account",
          "type": "address"
        }
      ],
      "name": "OwnableUnauthorizedAccount",
      "type": "error"
    },
    {
      "anonymous": false,
      "inputs": [
        {
          "indexed": true,
          "internalType": "address",
          "name": "owner",
          "type": "address"
        },
        {
          "indexed": true,
          "internalType": "address",
          "name": "approved",
          "type": "address"
        },
        {
          "indexed": true,
          "internalType": "uint256",
          "name": "tokenId",
          "type": "uint256"
        }
      ],
      "name": "Approval",
      "type": "event"
    },
    {
      "anonymous": false,
      "inputs": [
        {
          "indexed": true,
          "internalType": "address",
          "name": "owner",
          "type": "address"
        },
        {
          "indexed": true,
          "internalType": "address",
          "name": "operator",
          "type": "address"
        },
        {
          "indexed": false,
          "internalType": "bool",
          "name": "approved",
          "type": "bool"
        }
      ],
      "name": "ApprovalForAll",
      "type": "event"
    },
    {
      "anonymous": false,
      "inputs": [
        {
          "indexed": false,
          "internalType": "uint256",
          "name": "_fromTokenId",
          "type": "uint256"
        },
        {
          "indexed": false,
          "internalType": "uint256",
          "name": "_toTokenId",
          "type": "uint256"
        }
      ],
      "name": "BatchMetadataUpdate",
      "type": "event"
    },
    {
      "anonymous": false,
      "inputs": [
        {
          "indexed": false,
          "internalType": "uint256",
          "name": "_tokenId",
          "type": "uint256"
        }
      ],
      "name": "MetadataUpdate",
      "type": "event"
    },
    {
      "anonymous": false,
      "inputs": [
        {
          "indexed": true,
          "internalType": "address",
          "name": "previousOwner",
          "type": "address"
        },
        {
          "indexed": true,
          "internalType": "address",
          "name": "newOwner",
          "type": "address"
        }
      ],
      "name": "OwnershipTransferred",
      "type": "event"
    },
    {
      "anonymous": false,
      "inputs": [
        {
          "indexed": true,
          "internalType": "address",
          "name": "recipient",
          "type": "address"
        },
        {
          "indexed": true,
          "internalType": "uint256",
          "name": "tokenId",
          "type": "uint256"
        },
        {
          "indexed": false,
          "internalType": "string",
          "name": "tokenUri",
          "type": "string"
        }
      ],
      "name": "TokenMinted",
      "type": "event"
    },
    {
      "anonymous": false,
      "inputs": [
        {
          "indexed": true,
          "internalType": "address",
          "name": "from",
          "type": "address"
        },
        {
          "indexed": true,
          "internalType": "address",
          "name": "to",
          "type": "address"
        },
        {
          "indexed": true,
          "internalType": "uint256",
          "name": "tokenId",
          "type": "uint256"
        }
      ],
      "name": "Transfer",
      "type": "event"
    },
    {
      "inputs": [
        {
          "internalType": "address",
          "name": "to",
          "type": "address"
        },
        {
          "internalType": "uint256",
          "name": "tokenId",
          "type": "uint256"
        }
      ],
      "name": "approve",
      "outputs": [],
      "stateMutability": "nonpayable",
      "type": "function"
    },
    {
      "inputs": [
        {
          "internalType": "address",
          "name": "owner",
          "type": "address"
        }
      ],
      "name": "balanceOf",
      "outputs": [
        {
          "internalType": "uint256",
          "name": "",
          "type": "uint256"
        }
      ],
      "stateMutability": "view",
      "type": "function"
    },
    {
      "inputs": [],
      "name": "counter",
      "outputs": [
        {
          "internalType": "uint256",
          "name": "",
          "type": "uint256"
        }
      ],
      "stateMutability": "view",
      "type": "function"
    },
    {
      "inputs": [
        {
          "internalType": "uint256",
          "name": "tokenId",
          "type": "uint256"
        }
      ],
      "name": "getApproved",
      "outputs": [
        {
          "internalType": "address",
          "name": "",
          "type": "address"
        }
      ],
      "stateMutability": "view",
      "type": "function"
    },
    {
      "inputs": [
        {
          "internalType": "address",
          "name": "owner",
          "type": "address"
        },
        {
          "internalType": "address",
          "name": "operator",
          "type": "address"
        }
      ],
      "name": "isApprovedForAll",
      "outputs": [
        {
          "internalType": "bool",
          "name": "",
          "type": "bool"
        }
      ],
      "stateMutability": "view",
      "type": "function"
    },
    {
      "inputs": [],
      "name": "name",
      "outputs": [
        {
          "internalType": "string",
          "name": "",
          "type": "string"
        }
      ],
      "stateMutability": "view",
      "type": "function"
    },
    {
      "inputs": [],
      "name": "owner",
      "outputs": [
        {
          "internalType": "address",
          "name": "",
          "type": "address"
        }
      ],
      "stateMutability": "view",
      "type": "function"
    },
    {
      "inputs": [
        {
          "internalType": "uint256",
          "name": "tokenId",
          "type": "uint256"
        }
      ],
      "name": "ownerOf",
      "outputs": [
        {
          "internalType": "address",
          "name": "",
          "type": "address"
        }
      ],
      "stateMutability": "view",
      "type": "function"
    },
    {
      "inputs": [],
      "name": "renounceOwnership",
      "outputs": [],
      "stateMutability": "nonpayable",
      "type": "function"
    },
    {
      "inputs": [
        {
          "internalType": "address",
          "name": "from",
          "type": "address"
        },
        {
          "internalType": "address",
          "name": "to",
          "type": "address"
        },
        {
          "internalType": "uint256",
          "name": "tokenId",
          "type": "uint256"
        }
      ],
      "name": "safeTransferFrom",
      "outputs": [],
      "stateMutability": "nonpayable",
      "type": "function"
    },
    {
      "inputs": [
        {
          "internalType": "address",
          "name": "from",
          "type": "address"
        },
        {
          "internalType": "address",
          "name": "to",
          "type": "address"
        },
        {
          "internalType": "uint256",
          "name": "tokenId",
          "type": "uint256"
        },
        {
          "internalType": "bytes",
          "name": "data",
          "type": "bytes"
        }
      ],
      "name": "safeTransferFrom",
      "outputs": [],
      "stateMutability": "nonpayable",
      "type": "function"
    },
    {
      "inputs": [
        {
          "internalType": "address",
          "name": "operator",
          "type": "address"
        },
        {
          "internalType": "bool",
          "name": "approved",
          "type": "bool"
        }
      ],
      "name": "setApprovalForAll",
      "outputs": [],
      "stateMutability": "nonpayable",
      "type": "function"
    },
    {
      "inputs": [
        {
          "internalType": "bytes4",
          "name": "interfaceId",
          "type": "bytes4"
        }
      ],
      "name": "supportsInterface",
      "outputs": [
        {
          "internalType": "bool",
          "name": "",
          "type": "bool"
        }
      ],
      "stateMutability": "view",
      "type": "function"
    },
    {
      "inputs": [],
      "name": "symbol",
      "outputs": [
        {
          "internalType": "string",
          "name": "",
          "type": "string"
        }
      ],
      "stateMutability": "view",
      "type": "function"
    },
    {
      "inputs": [
        {
          "internalType": "uint256",
          "name": "tokenId",
          "type": "uint256"
        }
      ],
      "name": "tokenURI",
      "outputs": [
        {
          "internalType": "string",
          "name": "",
          "type": "string"
        }
      ],
      "stateMutability": "view",
      "type": "function"
    },
    {
      "inputs": [
        {
          "internalType": "address",
          "name": "from",
          "type": "address"
        },
        {
          "internalType": "address",
          "name": "to",
          "type": "address"
        },
        {
          "internalType": "uint256",
          "name": "tokenId",
          "type": "uint256"
        }
      ],
      "name": "transferFrom",
      "outputs": [],
      "stateMutability": "nonpayable",
      "type": "function"
    },
    {
      "inputs": [
        {
          "internalType": "address",
          "name": "newOwner",
          "type": "address"
        }
      ],
      "name": "transferOwnership",
      "outputs": [],
      "stateMutability": "nonpayable",
      "type": "function"
    },
    {
      "inputs": [
        {
          "internalType": "address",
          "name": "recipient",
          "type": "address"
        },
        {
          "internalType": "string",
          "name": "tokenUri",
          "type": "string"
        }
      ],
      "name": "mint",
      "outputs": [],
      "stateMutability": "payable",
      "type": "function"
    }
  ],
  "bytecode": "0x6080604052336040518060400160405280600b81526020017f63726166746d6f6e6b65790000000000000000000000000000000000000000008152506040518060400160405280600381526020017f6d6f6e0000000000000000000000000000000000000000000000000000000000815250815f908162000081919062000448565b50806001908162000093919062000448565b5050505f73ffffffffffffffffffffffffffffffffffffffff168173ffffffffffffffffffffffffffffffffffffffff160362000109575f6040517f1e4fbdf70000000000000000000000000000000000000000000000000000000081526004016200010091906200056f565b60405180910390fd5b6200011a816200012160201b60201c565b506200058a565b5f60075f9054906101000a900473ffffffffffffffffffffffffffffffffffffffff1690508160075f6101000a81548173ffffffffffffffffffffffffffffffffffffffff021916908373ffffffffffffffffffffffffffffffffffffffff1602179055508173ffffffffffffffffffffffffffffffffffffffff168173ffffffffffffffffffffffffffffffffffffffff167f8be0079c531659141344cd1fd0a4f28419497f9722a3daafe3b4186f6b6457e060405160405180910390a35050565b5f81519050919050565b7f4e487b71000000000000000000000000000000000000000000000000000000005f52604160045260245ffd5b7f4e487b71000000000000000000000000000000000000000000000000000000005f52602260045260245ffd5b5f60028204905060018216806200026057607f821691505b6020821081036200027657620002756200021b565b5b50919050565b5f819050815f5260205f209050919050565b5f6020601f8301049050919050565b5f82821b905092915050565b5f60088302620002da7fffffffffffffffffffffffffffffffffffffffffffffffffffffffffffffffff826200029d565b620002e686836200029d565b95508019841693508086168417925050509392505050565b5f819050919050565b5f819050919050565b5f620003306200032a6200032484620002fe565b62000307565b620002fe565b9050919050565b5f819050919050565b6200034b8362000310565b620003636200035a8262000337565b848454620002a9565b825550505050565b5f90565b620003796200036b565b6200038681848462000340565b505050565b5b81811015620003ad57620003a15f826200036f565b6001810190506200038c565b5050565b601f821115620003fc57620003c6816200027c565b620003d1846200028e565b81016020851015620003e1578190505b620003f9620003f0856200028e565b8301826200038b565b50505b505050565b5f82821c905092915050565b5f6200041e5f198460080262000401565b1980831691505092915050565b5f6200043883836200040d565b9150826002028217905092915050565b6200045382620001e4565b67ffffffffffffffff8111156200046f576200046e620001ee565b5b6200047b825462000248565b62000488828285620003b1565b5f60209050601f831160018114620004be575f8415620004a9578287015190505b620004b585826200042b565b86555062000524565b601f198416620004ce866200027c565b5f5b82811015620004f757848901518255600182019150602085019450602081019050620004d0565b8683101562000517578489015162000513601f8916826200040d565b8355505b6001600288020188555050505b505050505050565b5f73ffffffffffffffffffffffffffffffffffffffff82169050919050565b5f62000557826200052c565b9050919050565b62000569816200054b565b82525050565b5f602082019050620005845f8301846200055e565b92915050565b61268780620005985f395ff3fe608060405260043610610108575f3560e01c8063715018a611610094578063b88d4fde11610063578063b88d4fde1461035a578063c87b56dd14610382578063d0def521146103be578063e985e9c5146103da578063f2fde38b1461041657610108565b8063715018a6146102c85780638da5cb5b146102de57806395d89b4114610308578063a22cb4651461033257610108565b806323b872dd116100db57806323b872dd146101d657806342842e0e146101fe57806361bc221a146102265780636352211e1461025057806370a082311461028c57610108565b806301ffc9a71461010c57806306fdde0314610148578063081812fc14610172578063095ea7b3146101ae575b5f80fd5b348015610117575f80fd5b50610132600480360381019061012d9190611b40565b61043e565b60405161013f9190611b85565b60405180910390f35b348015610153575f80fd5b5061015c61049e565b6040516101699190611c28565b60405180910390f35b34801561017d575f80fd5b5061019860048036038101906101939190611c7b565b61052d565b6040516101a59190611ce5565b60405180910390f35b3480156101b9575f80fd5b506101d460048036038101906101cf9190611d28565b610548565b005b3480156101e1575f80fd5b506101fc60048036038101906101f79190611d66565b61055e565b005b348015610209575f80fd5b50610224600480360381019061021f9190611d66565b61065d565b005b348015610231575f80fd5b5061023a61067c565b6040516102479190611dc5565b60405180910390f35b34801561025b575f80fd5b5061027660048036038101906102719190611c7b565b610682565b6040516102839190611ce5565b60405180910390f35b348015610297575f80fd5b506102b260048036038101906102ad9190611dde565b610693565b6040516102bf9190611dc5565b60405180910390f35b3480156102d3575f80fd5b506102dc610749565b005b3480156102e9575f80fd5b506102f261075c565b6040516102ff9190611ce5565b60405180910390f35b348015610313575f80fd5b5061031c610784565b6040516103299190611c28565b60405180910390f35b34801561033d575f80fd5b5061035860048036038101906103539190611e33565b610814565b005b348015610365575f80fd5b50610380600480360381019061037b9190611f9d565b61082a565b005b34801561038d575f80fd5b506103a860048036038101906103a39190611c7b565b610847565b6040516103b59190611c28565b60405180910390f35b6103d860048036038101906103d391906120bb565b610952565b005b3480156103e5575f80fd5b5061040060048036038101906103fb9190612115565b6109d7565b60405161040d9190611b85565b60405180910390f35b348015610421575f80fd5b5061043c60048036038101906104379190611dde565b610a65565b005b5f634906490660e01b7bffffffffffffffffffffffffffffffffffffffffffffffffffffffff1916827bffffffffffffffffffffffffffffffffffffffffffffffffffffffff19161480610497575061049682610ae9565b5b9050919050565b60605f80546104ac90612180565b80601f01602080910402602001604051908101604052809291908181526020018280546104d890612180565b80156105235780601f106104fa57610100808354040283529160200191610523565b820191905f5260205f20905b81548152906001019060200180831161050657829003601f168201915b5050505050905090565b5f61053782610bca565b5061054182610c50565b9050919050565b61055a8282610555610c89565b610c90565b5050565b5f73ffffffffffffffffffffffffffffffffffffffff168273ffffffffffffffffffffffffffffffffffffffff16036105ce575f6040517f64a0ae920000000000000000000000000000000000000000000000000000000081526004016105c59190611ce5565b60405180910390fd5b5f6105e183836105dc610c89565b610ca2565b90508373ffffffffffffffffffffffffffffffffffffffff168173ffffffffffffffffffffffffffffffffffffffff1614610657578382826040517f64283d7b00000000000000000000000000000000000000000000000000000000815260040161064e939291906121b0565b60405180910390fd5b50505050565b61067783838360405180602001604052805f81525061082a565b505050565b60085481565b5f61068c82610bca565b9050919050565b5f8073ffffffffffffffffffffffffffffffffffffffff168273ffffffffffffffffffffffffffffffffffffffff1603610704575f6040517f89c62b640000000000000000000000000000000000000000000000000000000081526004016106fb9190611ce5565b60405180910390fd5b60035f8373ffffffffffffffffffffffffffffffffffffffff1673ffffffffffffffffffffffffffffffffffffffff1681526020019081526020015f20549050919050565b610751610ead565b61075a5f610f34565b565b5f60075f9054906101000a900473ffffffffffffffffffffffffffffffffffffffff16905090565b60606001805461079390612180565b80601f01602080910402602001604051908101604052809291908181526020018280546107bf90612180565b801561080a5780601f106107e15761010080835404028352916020019161080a565b820191905f5260205f20905b8154815290600101906020018083116107ed57829003601f168201915b5050505050905090565b61082661081f610c89565b8383610ff7565b5050565b61083584848461055e565b61084184848484611160565b50505050565b606061085282610bca565b505f60065f8481526020019081526020015f20805461087090612180565b80601f016020809104026020016040519081016040528092919081815260200182805461089c90612180565b80156108e75780601f106108be576101008083540402835291602001916108e7565b820191905f5260205f20905b8154815290600101906020018083116108ca57829003601f168201915b505050505090505f6108f7611312565b90505f81510361090b57819250505061094d565b5f8251111561093f57808260405160200161092792919061221f565b6040516020818303038152906040529250505061094d565b61094884611328565b925050505b919050565b60085f8154809291906109649061226f565b91905055505f6008549050610979838261138e565b6109838183611481565b808373ffffffffffffffffffffffffffffffffffffffff167fdf92894dc4675a7333caa5903b69cf5d8e8ec0d3f361c88207b6688e525703bb846040516109ca9190611c28565b60405180910390a3505050565b5f60055f8473ffffffffffffffffffffffffffffffffffffffff1673ffffffffffffffffffffffffffffffffffffffff1681526020019081526020015f205f8373ffffffffffffffffffffffffffffffffffffffff1673ffffffffffffffffffffffffffffffffffffffff1681526020019081526020015f205f9054906101000a900460ff16905092915050565b610a6d610ead565b5f73ffffffffffffffffffffffffffffffffffffffff168173ffffffffffffffffffffffffffffffffffffffff1603610add575f6040517f1e4fbdf7000000000000000000000000000000000000000000000000000000008152600401610ad49190611ce5565b60405180910390fd5b610ae681610f34565b50565b5f7f80ac58cd000000000000000000000000000000000000000000000000000000007bffffffffffffffffffffffffffffffffffffffffffffffffffffffff1916827bffffffffffffffffffffffffffffffffffffffffffffffffffffffff19161480610bb357507f5b5e139f000000000000000000000000000000000000000000000000000000007bffffffffffffffffffffffffffffffffffffffffffffffffffffffff1916827bffffffffffffffffffffffffffffffffffffffffffffffffffffffff1916145b80610bc35750610bc2826114db565b5b9050919050565b5f80610bd583611544565b90505f73ffffffffffffffffffffffffffffffffffffffff168173ffffffffffffffffffffffffffffffffffffffff1603610c4757826040517f7e273289000000000000000000000000000000000000000000000000000000008152600401610c3e9190611dc5565b60405180910390fd5b80915050919050565b5f60045f8381526020019081526020015f205f9054906101000a900473ffffffffffffffffffffffffffffffffffffffff169050919050565b5f33905090565b610c9d838383600161157d565b505050565b5f80610cad84611544565b90505f73ffffffffffffffffffffffffffffffffffffffff168373ffffffffffffffffffffffffffffffffffffffff1614610cee57610ced81848661173c565b5b5f73ffffffffffffffffffffffffffffffffffffffff168173ffffffffffffffffffffffffffffffffffffffff1614610d7957610d2d5f855f8061157d565b600160035f8373ffffffffffffffffffffffffffffffffffffffff1673ffffffffffffffffffffffffffffffffffffffff1681526020019081526020015f205f82825403925050819055505b5f73ffffffffffffffffffffffffffffffffffffffff168573ffffffffffffffffffffffffffffffffffffffff1614610df857600160035f8773ffffffffffffffffffffffffffffffffffffffff1673ffffffffffffffffffffffffffffffffffffffff1681526020019081526020015f205f82825401925050819055505b8460025f8681526020019081526020015f205f6101000a81548173ffffffffffffffffffffffffffffffffffffffff021916908373ffffffffffffffffffffffffffffffffffffffff160217905550838573ffffffffffffffffffffffffffffffffffffffff168273ffffffffffffffffffffffffffffffffffffffff167fddf252ad1be2c89b69c2b068fc378daa952ba7f163c4a11628f55a4df523b3ef60405160405180910390a4809150509392505050565b610eb5610c89565b73ffffffffffffffffffffffffffffffffffffffff16610ed361075c565b73ffffffffffffffffffffffffffffffffffffffff1614610f3257610ef6610c89565b6040517f118cdaa7000000000000000000000000000000000000000000000000000000008152600401610f299190611ce5565b60405180910390fd5b565b5f60075f9054906101000a900473ffffffffffffffffffffffffffffffffffffffff1690508160075f6101000a81548173ffffffffffffffffffffffffffffffffffffffff021916908373ffffffffffffffffffffffffffffffffffffffff1602179055508173ffffffffffffffffffffffffffffffffffffffff168173ffffffffffffffffffffffffffffffffffffffff167f8be0079c531659141344cd1fd0a4f28419497f9722a3daafe3b4186f6b6457e060405160405180910390a35050565b5f73ffffffffffffffffffffffffffffffffffffffff168273ffffffffffffffffffffffffffffffffffffffff160361106757816040517f5b08ba1800000000000000000000000000000000000000000000000000000000815260040161105e9190611ce5565b60405180910390fd5b8060055f8573ffffffffffffffffffffffffffffffffffffffff1673ffffffffffffffffffffffffffffffffffffffff1681526020019081526020015f205f8473ffffffffffffffffffffffffffffffffffffffff1673ffffffffffffffffffffffffffffffffffffffff1681526020019081526020015f205f6101000a81548160ff0219169083151502179055508173ffffffffffffffffffffffffffffffffffffffff168373ffffffffffffffffffffffffffffffffffffffff167f17307eab39ab6107e8899845ad3d59bd9653f200f220920489ca2b5937696c31836040516111539190611b85565b60405180910390a3505050565b5f8373ffffffffffffffffffffffffffffffffffffffff163b111561130c578273ffffffffffffffffffffffffffffffffffffffff1663150b7a026111a3610c89565b8685856040518563ffffffff1660e01b81526004016111c59493929190612308565b6020604051808303815f875af192505050801561120057506040513d601f19601f820116820180604052508101906111fd9190612366565b60015b611281573d805f811461122e576040519150601f19603f3d011682016040523d82523d5f602084013e611233565b606091505b505f81510361127957836040517f64a0ae920000000000000000000000000000000000000000000000000000000081526004016112709190611ce5565b60405180910390fd5b805181602001fd5b63150b7a0260e01b7bffffffffffffffffffffffffffffffffffffffffffffffffffffffff1916817bffffffffffffffffffffffffffffffffffffffffffffffffffffffff19161461130a57836040517f64a0ae920000000000000000000000000000000000000000000000000000000081526004016113019190611ce5565b60405180910390fd5b505b50505050565b606060405180602001604052805f815250905090565b606061133382610bca565b505f61133d611312565b90505f81511161135b5760405180602001604052805f815250611386565b80611365846117ff565b60405160200161137692919061221f565b6040516020818303038152906040525b915050919050565b5f73ffffffffffffffffffffffffffffffffffffffff168273ffffffffffffffffffffffffffffffffffffffff16036113fe575f6040517f64a0ae920000000000000000000000000000000000000000000000000000000081526004016113f59190611ce5565b60405180910390fd5b5f61140a83835f610ca2565b90505f73ffffffffffffffffffffffffffffffffffffffff168173ffffffffffffffffffffffffffffffffffffffff161461147c575f6040517f73c6ac6e0000000000000000000000000000000000000000000000000000000081526004016114739190611ce5565b60405180910390fd5b505050565b8060065f8481526020019081526020015f20908161149f919061252e565b507ff8e1a15aba9398e019f0b49df1a4fde98ee17ae345cb5f6b5e2c27f5033e8ce7826040516114cf9190611dc5565b60405180910390a15050565b5f7f01ffc9a7000000000000000000000000000000000000000000000000000000007bffffffffffffffffffffffffffffffffffffffffffffffffffffffff1916827bffffffffffffffffffffffffffffffffffffffffffffffffffffffff1916149050919050565b5f60025f8381526020019081526020015f205f9054906101000a900473ffffffffffffffffffffffffffffffffffffffff169050919050565b80806115b557505f73ffffffffffffffffffffffffffffffffffffffff168273ffffffffffffffffffffffffffffffffffffffff1614155b156116e7575f6115c484610bca565b90505f73ffffffffffffffffffffffffffffffffffffffff168373ffffffffffffffffffffffffffffffffffffffff161415801561162e57508273ffffffffffffffffffffffffffffffffffffffff168173ffffffffffffffffffffffffffffffffffffffff1614155b8015611641575061163f81846109d7565b155b1561168357826040517fa9fbf51f00000000000000000000000000000000000000000000000000000000815260040161167a9190611ce5565b60405180910390fd5b81156116e557838573ffffffffffffffffffffffffffffffffffffffff168273ffffffffffffffffffffffffffffffffffffffff167f8c5be1e5ebec7d5bd14f71427d1e84f3dd0314c0f7b2291e5b200ac8c7c3b92560405160405180910390a45b505b8360045f8581526020019081526020015f205f6101000a81548173ffffffffffffffffffffffffffffffffffffffff021916908373ffffffffffffffffffffffffffffffffffffffff16021790555050505050565b6117478383836118c9565b6117fa575f73ffffffffffffffffffffffffffffffffffffffff168373ffffffffffffffffffffffffffffffffffffffff16036117bb57806040517f7e2732890000000000000000000000000000000000000000000000000000000081526004016117b29190611dc5565b60405180910390fd5b81816040517f177e802f0000000000000000000000000000000000000000000000000000000081526004016117f19291906125fd565b60405180910390fd5b505050565b60605f600161180d84611989565b0190505f8167ffffffffffffffff81111561182b5761182a611e79565b5b6040519080825280601f01601f19166020018201604052801561185d5781602001600182028036833780820191505090505b5090505f82602001820190505b6001156118be578080600190039150507f3031323334353637383961626364656600000000000000000000000000000000600a86061a8153600a85816118b3576118b2612624565b5b0494505f850361186a575b819350505050919050565b5f8073ffffffffffffffffffffffffffffffffffffffff168373ffffffffffffffffffffffffffffffffffffffff161415801561198057508273ffffffffffffffffffffffffffffffffffffffff168473ffffffffffffffffffffffffffffffffffffffff161480611941575061194084846109d7565b5b8061197f57508273ffffffffffffffffffffffffffffffffffffffff1661196783610c50565b73ffffffffffffffffffffffffffffffffffffffff16145b5b90509392505050565b5f805f90507a184f03e93ff9f4daa797ed6e38ed64bf6a1f01000000000000000083106119e5577a184f03e93ff9f4daa797ed6e38ed64bf6a1f01000000000000000083816119db576119da612624565b5b0492506040810190505b6d04ee2d6d415b85acef81000000008310611a22576d04ee2d6d415b85acef81000000008381611a1857611a17612624565b5b0492506020810190505b662386f26fc100008310611a5157662386f26fc100008381611a4757611a46612624565b5b0492506010810190505b6305f5e1008310611a7a576305f5e1008381611a7057611a6f612624565b5b0492506008810190505b6127108310611a9f576127108381611a9557611a94612624565b5b0492506004810190505b60648310611ac25760648381611ab857611ab7612624565b5b0492506002810190505b600a8310611ad1576001810190505b80915050919050565b5f604051905090565b5f80fd5b5f80fd5b5f7fffffffff0000000000000000000000000000000000000000000000000000000082169050919050565b611b1f81611aeb565b8114611b29575f80fd5b50565b5f81359050611b3a81611b16565b92915050565b5f60208284031215611b5557611b54611ae3565b5b5f611b6284828501611b2c565b91505092915050565b5f8115159050919050565b611b7f81611b6b565b82525050565b5f602082019050611b985f830184611b76565b92915050565b5f81519050919050565b5f82825260208201905092915050565b5f5b83811015611bd5578082015181840152602081019050611bba565b5f8484015250505050565b5f601f19601f8301169050919050565b5f611bfa82611b9e565b611c048185611ba8565b9350611c14818560208601611bb8565b611c1d81611be0565b840191505092915050565b5f6020820190508181035f830152611c408184611bf0565b905092915050565b5f819050919050565b611c5a81611c48565b8114611c64575f80fd5b50565b5f81359050611c7581611c51565b92915050565b5f60208284031215611c9057611c8f611ae3565b5b5f611c9d84828501611c67565b91505092915050565b5f73ffffffffffffffffffffffffffffffffffffffff82169050919050565b5f611ccf82611ca6565b9050919050565b611cdf81611cc5565b82525050565b5f602082019050611cf85f830184611cd6565b92915050565b611d0781611cc5565b8114611d11575f80fd5b50565b5f81359050611d2281611cfe565b92915050565b5f8060408385031215611d3e57611d3d611ae3565b5b5f611d4b85828601611d14565b9250506020611d5c85828601611c67565b9150509250929050565b5f805f60608486031215611d7d57611d7c611ae3565b5b5f611d8a86828701611d14565b9350506020611d9b86828701611d14565b9250506040611dac86828701611c67565b9150509250925092565b611dbf81611c48565b82525050565b5f602082019050611dd85f830184611db6565b92915050565b5f60208284031215611df357611df2611ae3565b5b5f611e0084828501611d14565b91505092915050565b611e1281611b6b565b8114611e1c575f80fd5b50565b5f81359050611e2d81611e09565b92915050565b5f8060408385031215611e4957611e48611ae3565b5b5f611e5685828601611d14565b9250506020611e6785828601611e1f565b9150509250929050565b5f80fd5b5f80fd5b7f4e487b71000000000000000000000000000000000000000000000000000000005f52604160045260245ffd5b611eaf82611be0565b810181811067ffffffffffffffff82111715611ece57611ecd611e79565b5b80604052505050565b5f611ee0611ada565b9050611eec8282611ea6565b919050565b5f67ffffffffffffffff821115611f0b57611f0a611e79565b5b611f1482611be0565b9050602081019050919050565b828183375f83830152505050565b5f611f41611f3c84611ef1565b611ed7565b905082815260208101848484011115611f5d57611f5c611e75565b5b611f68848285611f21565b509392505050565b5f82601f830112611f8457611f83611e71565b5b8135611f94848260208601611f2f565b91505092915050565b5f805f8060808587031215611fb557611fb4611ae3565b5b5f611fc287828801611d14565b9450506020611fd387828801611d14565b9350506040611fe487828801611c67565b925050606085013567ffffffffffffffff81111561200557612004611ae7565b5b61201187828801611f70565b91505092959194509250565b5f67ffffffffffffffff82111561203757612036611e79565b5b61204082611be0565b9050602081019050919050565b5f61205f61205a8461201d565b611ed7565b90508281526020810184848401111561207b5761207a611e75565b5b612086848285611f21565b509392505050565b5f82601f8301126120a2576120a1611e71565b5b81356120b284826020860161204d565b91505092915050565b5f80604083850312156120d1576120d0611ae3565b5b5f6120de85828601611d14565b925050602083013567ffffffffffffffff8111156120ff576120fe611ae7565b5b61210b8582860161208e565b9150509250929050565b5f806040838503121561212b5761212a611ae3565b5b5f61213885828601611d14565b925050602061214985828601611d14565b9150509250929050565b7f4e487b71000000000000000000000000000000000000000000000000000000005f52602260045260245ffd5b5f600282049050600182168061219757607f821691505b6020821081036121aa576121a9612153565b5b50919050565b5f6060820190506121c35f830186611cd6565b6121d06020830185611db6565b6121dd6040830184611cd6565b949350505050565b5f81905092915050565b5f6121f982611b9e565b61220381856121e5565b9350612213818560208601611bb8565b80840191505092915050565b5f61222a82856121ef565b915061223682846121ef565b91508190509392505050565b7f4e487b71000000000000000000000000000000000000000000000000000000005f52601160045260245ffd5b5f61227982611c48565b91507fffffffffffffffffffffffffffffffffffffffffffffffffffffffffffffffff82036122ab576122aa612242565b5b600182019050919050565b5f81519050919050565b5f82825260208201905092915050565b5f6122da826122b6565b6122e481856122c0565b93506122f4818560208601611bb8565b6122fd81611be0565b840191505092915050565b5f60808201905061231b5f830187611cd6565b6123286020830186611cd6565b6123356040830185611db6565b818103606083015261234781846122d0565b905095945050505050565b5f8151905061236081611b16565b92915050565b5f6020828403121561237b5761237a611ae3565b5b5f61238884828501612352565b91505092915050565b5f819050815f5260205f209050919050565b5f6020601f8301049050919050565b5f82821b905092915050565b5f600883026123ed7fffffffffffffffffffffffffffffffffffffffffffffffffffffffffffffffff826123b2565b6123f786836123b2565b95508019841693508086168417925050509392505050565b5f819050919050565b5f61243261242d61242884611c48565b61240f565b611c48565b9050919050565b5f819050919050565b61244b83612418565b61245f61245782612439565b8484546123be565b825550505050565b5f90565b612473612467565b61247e818484612442565b505050565b5b818110156124a1576124965f8261246b565b600181019050612484565b5050565b601f8211156124e6576124b781612391565b6124c0846123a3565b810160208510156124cf578190505b6124e36124db856123a3565b830182612483565b50505b505050565b5f82821c905092915050565b5f6125065f19846008026124eb565b1980831691505092915050565b5f61251e83836124f7565b9150826002028217905092915050565b61253782611b9e565b67ffffffffffffffff8111156125505761254f611e79565b5b61255a8254612180565b6125658282856124a5565b5f60209050601f831160018114612596575f8415612584578287015190505b61258e8582612513565b8655506125f5565b601f1984166125a486612391565b5f5b828110156125cb578489015182556001820191506020850194506020810190506125a6565b868310156125e857848901516125e4601f8916826124f7565b8355505b6001600288020188555050505b505050505050565b5f6040820190506126105f830185611cd6565b61261d6020830184611db6565b9392505050565b7f4e487b71000000000000000000000000000000000000000000000000000000005f52601260045260245ffdfea26469706673582212209052c3054d3e6cb3b3baff1617b00b4ec4cdea969be83697c7f028b485dae71964736f6c63430008150033",
  "immutableReferences": {},
  "source": "// SPDX-License-Identifier: MIT\r\npragma solidity ^0.8.5;\r\n\r\nimport \"@openzeppelin/contracts/token/ERC721/ERC721.sol\";\r\nimport \"@openzeppelin/contracts/access/Ownable.sol\";\r\nimport \"@openzeppelin/contracts/utils/Strings.sol\";\r\nimport \"@openzeppelin/contracts/token/ERC721/extensions/ERC721URIStorage.sol\";\r\n\r\ncontract NFT is ERC721URIStorage, Ownable {\r\n    using Strings for uint256;\r\n\r\n    uint256 public counter;\r\n\r\n    event TokenMinted(\r\n        address indexed recipient,\r\n        uint256 indexed tokenId,\r\n        string tokenUri\r\n    );\r\n\r\n    constructor() payable ERC721(\"craftmonkey\", \"mon\") Ownable(msg.sender) {}\r\n\r\n    function mint(address recipient, string memory tokenUri) public payable {\r\n        counter++;\r\n\r\n        uint256 tokenId = counter;\r\n        _mint(recipient, tokenId);\r\n        _setTokenURI(tokenId, tokenUri);\r\n\r\n        emit TokenMinted(recipient, tokenId, tokenUri);\r\n    }\r\n}\r\n",
  "sourcePath": "C:\\Users\\Aryan\\monkey\\contracts\\mong.sol",
  "compiler": {
    "name": "solc",
    "version": "0.8.21+commit.d9974bed.Emscripten.clang"
  },
  "schemaVersion": "3.4.16",
  "updatedAt": "2024-04-24T12:30:23.189Z",
  "devdoc": {
    "errors": {
      "ERC721IncorrectOwner(address,uint256,address)": [
        {
          "details": "Indicates an error related to the ownership over a particular token. Used in transfers.",
          "params": {
            "owner": "Address of the current owner of a token.",
            "sender": "Address whose tokens are being transferred.",
            "tokenId": "Identifier number of a token."
          }
        }
      ],
      "ERC721InsufficientApproval(address,uint256)": [
        {
          "details": "Indicates a failure with the `operator`s approval. Used in transfers.",
          "params": {
            "operator": "Address that may be allowed to operate on tokens without being their owner.",
            "tokenId": "Identifier number of a token."
          }
        }
      ],
      "ERC721InvalidApprover(address)": [
        {
          "details": "Indicates a failure with the `approver` of a token to be approved. Used in approvals.",
          "params": {
            "approver": "Address initiating an approval operation."
          }
        }
      ],
      "ERC721InvalidOperator(address)": [
        {
          "details": "Indicates a failure with the `operator` to be approved. Used in approvals.",
          "params": {
            "operator": "Address that may be allowed to operate on tokens without being their owner."
          }
        }
      ],
      "ERC721InvalidOwner(address)": [
        {
          "details": "Indicates that an address can't be an owner. For example, `address(0)` is a forbidden owner in EIP-20. Used in balance queries.",
          "params": {
            "owner": "Address of the current owner of a token."
          }
        }
      ],
      "ERC721InvalidReceiver(address)": [
        {
          "details": "Indicates a failure with the token `receiver`. Used in transfers.",
          "params": {
            "receiver": "Address to which tokens are being transferred."
          }
        }
      ],
      "ERC721InvalidSender(address)": [
        {
          "details": "Indicates a failure with the token `sender`. Used in transfers.",
          "params": {
            "sender": "Address whose tokens are being transferred."
          }
        }
      ],
      "ERC721NonexistentToken(uint256)": [
        {
          "details": "Indicates a `tokenId` whose `owner` is the zero address.",
          "params": {
            "tokenId": "Identifier number of a token."
          }
        }
      ],
      "OwnableInvalidOwner(address)": [
        {
          "details": "The owner is not a valid owner account. (eg. `address(0)`)"
        }
      ],
      "OwnableUnauthorizedAccount(address)": [
        {
          "details": "The caller account is not authorized to perform an operation."
        }
      ]
    },
    "events": {
      "Approval(address,address,uint256)": {
        "details": "Emitted when `owner` enables `approved` to manage the `tokenId` token."
      },
      "ApprovalForAll(address,address,bool)": {
        "details": "Emitted when `owner` enables or disables (`approved`) `operator` to manage all of its assets."
      },
      "BatchMetadataUpdate(uint256,uint256)": {
        "details": "This event emits when the metadata of a range of tokens is changed. So that the third-party platforms such as NFT market could timely update the images and related attributes of the NFTs."
      },
      "MetadataUpdate(uint256)": {
        "details": "This event emits when the metadata of a token is changed. So that the third-party platforms such as NFT market could timely update the images and related attributes of the NFT."
      },
      "Transfer(address,address,uint256)": {
        "details": "Emitted when `tokenId` token is transferred from `from` to `to`."
      }
    },
    "kind": "dev",
    "methods": {
      "approve(address,uint256)": {
        "details": "See {IERC721-approve}."
      },
      "balanceOf(address)": {
        "details": "See {IERC721-balanceOf}."
      },
      "getApproved(uint256)": {
        "details": "See {IERC721-getApproved}."
      },
      "isApprovedForAll(address,address)": {
        "details": "See {IERC721-isApprovedForAll}."
      },
      "name()": {
        "details": "See {IERC721Metadata-name}."
      },
      "owner()": {
        "details": "Returns the address of the current owner."
      },
      "ownerOf(uint256)": {
        "details": "See {IERC721-ownerOf}."
      },
      "renounceOwnership()": {
        "details": "Leaves the contract without owner. It will not be possible to call `onlyOwner` functions. Can only be called by the current owner. NOTE: Renouncing ownership will leave the contract without an owner, thereby disabling any functionality that is only available to the owner."
      },
      "safeTransferFrom(address,address,uint256)": {
        "details": "See {IERC721-safeTransferFrom}."
      },
      "safeTransferFrom(address,address,uint256,bytes)": {
        "details": "See {IERC721-safeTransferFrom}."
      },
      "setApprovalForAll(address,bool)": {
        "details": "See {IERC721-setApprovalForAll}."
      },
      "supportsInterface(bytes4)": {
        "details": "See {IERC165-supportsInterface}"
      },
      "symbol()": {
        "details": "See {IERC721Metadata-symbol}."
      },
      "tokenURI(uint256)": {
        "details": "See {IERC721Metadata-tokenURI}."
      },
      "transferFrom(address,address,uint256)": {
        "details": "See {IERC721-transferFrom}."
      },
      "transferOwnership(address)": {
        "details": "Transfers ownership of the contract to a new account (`newOwner`). Can only be called by the current owner."
      }
    },
    "version": 1
  },
  "userdoc": {
    "kind": "user",
    "methods": {},
    "version": 1
  }
}