{
  "contractName": "Ticket",
  "abi": [
    {
      "inputs": [],
      "stateMutability": "nonpayable",
      "type": "constructor"
    },
    {
      "inputs": [
        {
          "internalType": "address",
          "name": "sender",
          "type": "address"
        },
        {
          "internalType": "uint256",
          "name": "tokenId",
          "type": "uint256"
        },
        {
          "internalType": "address",
          "name": "owner",
          "type": "address"
        }
      ],
      "name": "ERC721IncorrectOwner",
      "type": "error"
    },
    {
      "inputs": [
        {
          "internalType": "address",
          "name": "operator",
          "type": "address"
        },
        {
          "internalType": "uint256",
          "name": "tokenId",
          "type": "uint256"
        }
      ],
      "name": "ERC721InsufficientApproval",
      "type": "error"
    },
    {
      "inputs": [
        {
          "internalType": "address",
          "name": "approver",
          "type": "address"
        }
      ],
      "name": "ERC721InvalidApprover",
      "type": "error"
    },
    {
      "inputs": [
        {
          "internalType": "address",
          "name": "operator",
          "type": "address"
        }
      ],
      "name": "ERC721InvalidOperator",
      "type": "error"
    },
    {
      "inputs": [
        {
          "internalType": "address",
          "name": "owner",
          "type": "address"
        }
      ],
      "name": "ERC721InvalidOwner",
      "type": "error"
    },
    {
      "inputs": [
        {
          "internalType": "address",
          "name": "receiver",
          "type": "address"
        }
      ],
      "name": "ERC721InvalidReceiver",
      "type": "error"
    },
    {
      "inputs": [
        {
          "internalType": "address",
          "name": "sender",
          "type": "address"
        }
      ],
      "name": "ERC721InvalidSender",
      "type": "error"
    },
    {
      "inputs": [
        {
          "internalType": "uint256",
          "name": "tokenId",
          "type": "uint256"
        }
      ],
      "name": "ERC721NonexistentToken",
      "type": "error"
    },
    {
      "anonymous": false,
      "inputs": [
        {
          "indexed": true,
          "internalType": "address",
          "name": "owner",
          "type": "address"
        },
        {
          "indexed": true,
          "internalType": "address",
          "name": "approved",
          "type": "address"
        },
        {
          "indexed": true,
          "internalType": "uint256",
          "name": "tokenId",
          "type": "uint256"
        }
      ],
      "name": "Approval",
      "type": "event"
    },
    {
      "anonymous": false,
      "inputs": [
        {
          "indexed": true,
          "internalType": "address",
          "name": "owner",
          "type": "address"
        },
        {
          "indexed": true,
          "internalType": "address",
          "name": "operator",
          "type": "address"
        },
        {
          "indexed": false,
          "internalType": "bool",
          "name": "approved",
          "type": "bool"
        }
      ],
      "name": "ApprovalForAll",
      "type": "event"
    },
    {
      "anonymous": false,
      "inputs": [
        {
          "indexed": true,
          "internalType": "address",
          "name": "from",
          "type": "address"
        },
        {
          "indexed": true,
          "internalType": "address",
          "name": "to",
          "type": "address"
        },
        {
          "indexed": true,
          "internalType": "uint256",
          "name": "tokenId",
          "type": "uint256"
        }
      ],
      "name": "Transfer",
      "type": "event"
    },
    {
      "inputs": [
        {
          "internalType": "uint256",
          "name": "",
          "type": "uint256"
        }
      ],
      "name": "_token",
      "outputs": [
        {
          "internalType": "string",
          "name": "eventname",
          "type": "string"
        },
        {
          "internalType": "string",
          "name": "date",
          "type": "string"
        },
        {
          "internalType": "string",
          "name": "location",
          "type": "string"
        },
        {
          "internalType": "string",
          "name": "tickettype",
          "type": "string"
        },
        {
          "internalType": "string",
          "name": "seatnumber",
          "type": "string"
        },
        {
          "internalType": "string",
          "name": "additonal_info",
          "type": "string"
        },
        {
          "internalType": "string",
          "name": "ipfs",
          "type": "string"
        }
      ],
      "stateMutability": "view",
      "type": "function"
    },
    {
      "inputs": [
        {
          "internalType": "address",
          "name": "to",
          "type": "address"
        },
        {
          "internalType": "uint256",
          "name": "tokenId",
          "type": "uint256"
        }
      ],
      "name": "approve",
      "outputs": [],
      "stateMutability": "nonpayable",
      "type": "function"
    },
    {
      "inputs": [
        {
          "internalType": "address",
          "name": "owner",
          "type": "address"
        }
      ],
      "name": "balanceOf",
      "outputs": [
        {
          "internalType": "uint256",
          "name": "",
          "type": "uint256"
        }
      ],
      "stateMutability": "view",
      "type": "function"
    },
    {
      "inputs": [
        {
          "internalType": "uint256",
          "name": "tokenId",
          "type": "uint256"
        }
      ],
      "name": "getApproved",
      "outputs": [
        {
          "internalType": "address",
          "name": "",
          "type": "address"
        }
      ],
      "stateMutability": "view",
      "type": "function"
    },
    {
      "inputs": [
        {
          "internalType": "address",
          "name": "owner",
          "type": "address"
        },
        {
          "internalType": "address",
          "name": "operator",
          "type": "address"
        }
      ],
      "name": "isApprovedForAll",
      "outputs": [
        {
          "internalType": "bool",
          "name": "",
          "type": "bool"
        }
      ],
      "stateMutability": "view",
      "type": "function"
    },
    {
      "inputs": [],
      "name": "name",
      "outputs": [
        {
          "internalType": "string",
          "name": "",
          "type": "string"
        }
      ],
      "stateMutability": "view",
      "type": "function"
    },
    {
      "inputs": [
        {
          "internalType": "uint256",
          "name": "tokenId",
          "type": "uint256"
        }
      ],
      "name": "ownerOf",
      "outputs": [
        {
          "internalType": "address",
          "name": "",
          "type": "address"
        }
      ],
      "stateMutability": "view",
      "type": "function"
    },
    {
      "inputs": [
        {
          "internalType": "address",
          "name": "from",
          "type": "address"
        },
        {
          "internalType": "address",
          "name": "to",
          "type": "address"
        },
        {
          "internalType": "uint256",
          "name": "tokenId",
          "type": "uint256"
        }
      ],
      "name": "safeTransferFrom",
      "outputs": [],
      "stateMutability": "nonpayable",
      "type": "function"
    },
    {
      "inputs": [
        {
          "internalType": "address",
          "name": "from",
          "type": "address"
        },
        {
          "internalType": "address",
          "name": "to",
          "type": "address"
        },
        {
          "internalType": "uint256",
          "name": "tokenId",
          "type": "uint256"
        },
        {
          "internalType": "bytes",
          "name": "data",
          "type": "bytes"
        }
      ],
      "name": "safeTransferFrom",
      "outputs": [],
      "stateMutability": "nonpayable",
      "type": "function"
    },
    {
      "inputs": [
        {
          "internalType": "address",
          "name": "operator",
          "type": "address"
        },
        {
          "internalType": "bool",
          "name": "approved",
          "type": "bool"
        }
      ],
      "name": "setApprovalForAll",
      "outputs": [],
      "stateMutability": "nonpayable",
      "type": "function"
    },
    {
      "inputs": [
        {
          "internalType": "bytes4",
          "name": "interfaceId",
          "type": "bytes4"
        }
      ],
      "name": "supportsInterface",
      "outputs": [
        {
          "internalType": "bool",
          "name": "",
          "type": "bool"
        }
      ],
      "stateMutability": "view",
      "type": "function"
    },
    {
      "inputs": [],
      "name": "symbol",
      "outputs": [
        {
          "internalType": "string",
          "name": "",
          "type": "string"
        }
      ],
      "stateMutability": "view",
      "type": "function"
    },
    {
      "inputs": [
        {
          "internalType": "uint256",
          "name": "tokenId",
          "type": "uint256"
        }
      ],
      "name": "tokenURI",
      "outputs": [
        {
          "internalType": "string",
          "name": "",
          "type": "string"
        }
      ],
      "stateMutability": "view",
      "type": "function"
    },
    {
      "inputs": [
        {
          "internalType": "address",
          "name": "from",
          "type": "address"
        },
        {
          "internalType": "address",
          "name": "to",
          "type": "address"
        },
        {
          "internalType": "uint256",
          "name": "tokenId",
          "type": "uint256"
        }
      ],
      "name": "transferFrom",
      "outputs": [],
      "stateMutability": "nonpayable",
      "type": "function"
    },
    {
      "inputs": [
        {
          "internalType": "address",
          "name": "to",
          "type": "address"
        },
        {
          "internalType": "uint256",
          "name": "tokenId",
          "type": "uint256"
        },
        {
          "internalType": "string",
          "name": "evm",
          "type": "string"
        },
        {
          "internalType": "string",
          "name": "dat",
          "type": "string"
        },
        {
          "internalType": "string",
          "name": "loc",
          "type": "string"
        },
        {
          "internalType": "string",
          "name": "tic",
          "type": "string"
        },
        {
          "internalType": "string",
          "name": "seatnum",
          "type": "string"
        },
        {
          "internalType": "string",
          "name": "addinfo",
          "type": "string"
        },
        {
          "internalType": "string",
          "name": "ipfsno",
          "type": "string"
        }
      ],
      "name": "transfer",
      "outputs": [],
      "stateMutability": "nonpayable",
      "type": "function"
    },
    {
      "inputs": [
        {
          "internalType": "uint256",
          "name": "tokenId",
          "type": "uint256"
        }
      ],
      "name": "getTokenIPFSHash",
      "outputs": [
        {
          "internalType": "string",
          "name": "",
          "type": "string"
        }
      ],
      "stateMutability": "view",
      "type": "function"
    }
  ],
  "bytecode": "0x608060405234801562000010575f80fd5b506040518060400160405280600a81526020017f7469636b6574736e6674000000000000000000000000000000000000000000008152506040518060400160405280600381526020017f544b4e0000000000000000000000000000000000000000000000000000000000815250815f90816200008d91906200030c565b5080600190816200009f91906200030c565b505050620003f0565b5f81519050919050565b7f4e487b71000000000000000000000000000000000000000000000000000000005f52604160045260245ffd5b7f4e487b71000000000000000000000000000000000000000000000000000000005f52602260045260245ffd5b5f60028204905060018216806200012457607f821691505b6020821081036200013a5762000139620000df565b5b50919050565b5f819050815f5260205f209050919050565b5f6020601f8301049050919050565b5f82821b905092915050565b5f600883026200019e7fffffffffffffffffffffffffffffffffffffffffffffffffffffffffffffffff8262000161565b620001aa868362000161565b95508019841693508086168417925050509392505050565b5f819050919050565b5f819050919050565b5f620001f4620001ee620001e884620001c2565b620001cb565b620001c2565b9050919050565b5f819050919050565b6200020f83620001d4565b620002276200021e82620001fb565b8484546200016d565b825550505050565b5f90565b6200023d6200022f565b6200024a81848462000204565b505050565b5b818110156200027157620002655f8262000233565b60018101905062000250565b5050565b601f821115620002c0576200028a8162000140565b620002958462000152565b81016020851015620002a5578190505b620002bd620002b48562000152565b8301826200024f565b50505b505050565b5f82821c905092915050565b5f620002e25f1984600802620002c5565b1980831691505092915050565b5f620002fc8383620002d1565b9150826002028217905092915050565b6200031782620000a8565b67ffffffffffffffff811115620003335762000332620000b2565b5b6200033f82546200010c565b6200034c82828562000275565b5f60209050601f83116001811462000382575f84156200036d578287015190505b620003798582620002ef565b865550620003e8565b601f198416620003928662000140565b5f5b82811015620003bb5784890151825560018201915060208501945060208101905062000394565b86831015620003db5784890151620003d7601f891682620002d1565b8355505b6001600288020188555050505b505050505050565b61283480620003fe5f395ff3fe608060405234801561000f575f80fd5b50600436106100fe575f3560e01c80636352211e11610095578063b485a99911610064578063b485a999146102ba578063b88d4fde146102f0578063c87b56dd1461030c578063e985e9c51461033c576100fe565b80636352211e1461022057806370a082311461025057806395d89b4114610280578063a22cb4651461029e576100fe565b806323b872dd116100d157806323b872dd1461019c5780633f2ad2e3146101b857806342842e0e146101e85780634c4ae21e14610204576100fe565b806301ffc9a71461010257806306fdde0314610132578063081812fc14610150578063095ea7b314610180575b5f80fd5b61011c60048036038101906101179190611b95565b61036c565b6040516101299190611bda565b60405180910390f35b61013a61044d565b6040516101479190611c7d565b60405180910390f35b61016a60048036038101906101659190611cd0565b6104dc565b6040516101779190611d3a565b60405180910390f35b61019a60048036038101906101959190611d7d565b6104f7565b005b6101b660048036038101906101b19190611dbb565b61050d565b005b6101d260048036038101906101cd9190611cd0565b61060c565b6040516101df9190611c7d565b60405180910390f35b61020260048036038101906101fd9190611dbb565b6106b0565b005b61021e60048036038101906102199190611f37565b6106cf565b005b61023a60048036038101906102359190611cd0565b6107c3565b6040516102479190611d3a565b60405180910390f35b61026a600480360381019061026591906120bf565b6107d4565b60405161027791906120f9565b60405180910390f35b61028861088a565b6040516102959190611c7d565b60405180910390f35b6102b860048036038101906102b3919061213c565b61091a565b005b6102d460048036038101906102cf9190611cd0565b610930565b6040516102e7979695949392919061217a565b60405180910390f35b61030a600480360381019061030591906122b6565b610d18565b005b61032660048036038101906103219190611cd0565b610d35565b6040516103339190611c7d565b60405180910390f35b61035660048036038101906103519190612336565b610d9b565b6040516103639190611bda565b60405180910390f35b5f7f80ac58cd000000000000000000000000000000000000000000000000000000007bffffffffffffffffffffffffffffffffffffffffffffffffffffffff1916827bffffffffffffffffffffffffffffffffffffffffffffffffffffffff1916148061043657507f5b5e139f000000000000000000000000000000000000000000000000000000007bffffffffffffffffffffffffffffffffffffffffffffffffffffffff1916827bffffffffffffffffffffffffffffffffffffffffffffffffffffffff1916145b80610446575061044582610e29565b5b9050919050565b60605f805461045b906123a1565b80601f0160208091040260200160405190810160405280929190818152602001828054610487906123a1565b80156104d25780601f106104a9576101008083540402835291602001916104d2565b820191905f5260205f20905b8154815290600101906020018083116104b557829003601f168201915b5050505050905090565b5f6104e682610e92565b506104f082610f18565b9050919050565b6105098282610504610f51565b610f58565b5050565b5f73ffffffffffffffffffffffffffffffffffffffff168273ffffffffffffffffffffffffffffffffffffffff160361057d575f6040517f64a0ae920000000000000000000000000000000000000000000000000000000081526004016105749190611d3a565b60405180910390fd5b5f610590838361058b610f51565b610f6a565b90508373ffffffffffffffffffffffffffffffffffffffff168173ffffffffffffffffffffffffffffffffffffffff1614610606578382826040517f64283d7b0000000000000000000000000000000000000000000000000000000081526004016105fd939291906123d1565b60405180910390fd5b50505050565b606060065f8381526020019081526020015f20600601805461062d906123a1565b80601f0160208091040260200160405190810160405280929190818152602001828054610659906123a1565b80156106a45780601f1061067b576101008083540402835291602001916106a4565b820191905f5260205f20905b81548152906001019060200180831161068757829003601f168201915b50505050509050919050565b6106ca83838360405180602001604052805f815250610d18565b505050565b6106d98989611175565b6040518060e001604052808881526020018781526020018681526020018581526020018481526020018381526020018281525060065f8a81526020019081526020015f205f820151815f01908161073091906125a3565b50602082015181600101908161074691906125a3565b50604082015181600201908161075c91906125a3565b50606082015181600301908161077291906125a3565b50608082015181600401908161078891906125a3565b5060a082015181600501908161079e91906125a3565b5060c08201518160060190816107b491906125a3565b50905050505050505050505050565b5f6107cd82610e92565b9050919050565b5f8073ffffffffffffffffffffffffffffffffffffffff168273ffffffffffffffffffffffffffffffffffffffff1603610845575f6040517f89c62b6400000000000000000000000000000000000000000000000000000000815260040161083c9190611d3a565b60405180910390fd5b60035f8373ffffffffffffffffffffffffffffffffffffffff1673ffffffffffffffffffffffffffffffffffffffff1681526020019081526020015f20549050919050565b606060018054610899906123a1565b80601f01602080910402602001604051908101604052809291908181526020018280546108c5906123a1565b80156109105780601f106108e757610100808354040283529160200191610910565b820191905f5260205f20905b8154815290600101906020018083116108f357829003601f168201915b5050505050905090565b61092c610925610f51565b8383611268565b5050565b6006602052805f5260405f205f91509050805f01805461094f906123a1565b80601f016020809104026020016040519081016040528092919081815260200182805461097b906123a1565b80156109c65780601f1061099d576101008083540402835291602001916109c6565b820191905f5260205f20905b8154815290600101906020018083116109a957829003601f168201915b5050505050908060010180546109db906123a1565b80601f0160208091040260200160405190810160405280929190818152602001828054610a07906123a1565b8015610a525780601f10610a2957610100808354040283529160200191610a52565b820191905f5260205f20905b815481529060010190602001808311610a3557829003601f168201915b505050505090806002018054610a67906123a1565b80601f0160208091040260200160405190810160405280929190818152602001828054610a93906123a1565b8015610ade5780601f10610ab557610100808354040283529160200191610ade565b820191905f5260205f20905b815481529060010190602001808311610ac157829003601f168201915b505050505090806003018054610af3906123a1565b80601f0160208091040260200160405190810160405280929190818152602001828054610b1f906123a1565b8015610b6a5780601f10610b4157610100808354040283529160200191610b6a565b820191905f5260205f20905b815481529060010190602001808311610b4d57829003601f168201915b505050505090806004018054610b7f906123a1565b80601f0160208091040260200160405190810160405280929190818152602001828054610bab906123a1565b8015610bf65780601f10610bcd57610100808354040283529160200191610bf6565b820191905f5260205f20905b815481529060010190602001808311610bd957829003601f168201915b505050505090806005018054610c0b906123a1565b80601f0160208091040260200160405190810160405280929190818152602001828054610c37906123a1565b8015610c825780601f10610c5957610100808354040283529160200191610c82565b820191905f5260205f20905b815481529060010190602001808311610c6557829003601f168201915b505050505090806006018054610c97906123a1565b80601f0160208091040260200160405190810160405280929190818152602001828054610cc3906123a1565b8015610d0e5780601f10610ce557610100808354040283529160200191610d0e565b820191905f5260205f20905b815481529060010190602001808311610cf157829003601f168201915b5050505050905087565b610d2384848461050d565b610d2f848484846113d1565b50505050565b6060610d4082610e92565b505f610d4a611583565b90505f815111610d685760405180602001604052805f815250610d93565b80610d7284611599565b604051602001610d839291906126ac565b6040516020818303038152906040525b915050919050565b5f60055f8473ffffffffffffffffffffffffffffffffffffffff1673ffffffffffffffffffffffffffffffffffffffff1681526020019081526020015f205f8373ffffffffffffffffffffffffffffffffffffffff1673ffffffffffffffffffffffffffffffffffffffff1681526020019081526020015f205f9054906101000a900460ff16905092915050565b5f7f01ffc9a7000000000000000000000000000000000000000000000000000000007bffffffffffffffffffffffffffffffffffffffffffffffffffffffff1916827bffffffffffffffffffffffffffffffffffffffffffffffffffffffff1916149050919050565b5f80610e9d83611663565b90505f73ffffffffffffffffffffffffffffffffffffffff168173ffffffffffffffffffffffffffffffffffffffff1603610f0f57826040517f7e273289000000000000000000000000000000000000000000000000000000008152600401610f0691906120f9565b60405180910390fd5b80915050919050565b5f60045f8381526020019081526020015f205f9054906101000a900473ffffffffffffffffffffffffffffffffffffffff169050919050565b5f33905090565b610f65838383600161169c565b505050565b5f80610f7584611663565b90505f73ffffffffffffffffffffffffffffffffffffffff168373ffffffffffffffffffffffffffffffffffffffff1614610fb657610fb581848661185b565b5b5f73ffffffffffffffffffffffffffffffffffffffff168173ffffffffffffffffffffffffffffffffffffffff161461104157610ff55f855f8061169c565b600160035f8373ffffffffffffffffffffffffffffffffffffffff1673ffffffffffffffffffffffffffffffffffffffff1681526020019081526020015f205f82825403925050819055505b5f73ffffffffffffffffffffffffffffffffffffffff168573ffffffffffffffffffffffffffffffffffffffff16146110c057600160035f8773ffffffffffffffffffffffffffffffffffffffff1673ffffffffffffffffffffffffffffffffffffffff1681526020019081526020015f205f82825401925050819055505b8460025f8681526020019081526020015f205f6101000a81548173ffffffffffffffffffffffffffffffffffffffff021916908373ffffffffffffffffffffffffffffffffffffffff160217905550838573ffffffffffffffffffffffffffffffffffffffff168273ffffffffffffffffffffffffffffffffffffffff167fddf252ad1be2c89b69c2b068fc378daa952ba7f163c4a11628f55a4df523b3ef60405160405180910390a4809150509392505050565b5f73ffffffffffffffffffffffffffffffffffffffff168273ffffffffffffffffffffffffffffffffffffffff16036111e5575f6040517f64a0ae920000000000000000000000000000000000000000000000000000000081526004016111dc9190611d3a565b60405180910390fd5b5f6111f183835f610f6a565b90505f73ffffffffffffffffffffffffffffffffffffffff168173ffffffffffffffffffffffffffffffffffffffff1614611263575f6040517f73c6ac6e00000000000000000000000000000000000000000000000000000000815260040161125a9190611d3a565b60405180910390fd5b505050565b5f73ffffffffffffffffffffffffffffffffffffffff168273ffffffffffffffffffffffffffffffffffffffff16036112d857816040517f5b08ba180000000000000000000000000000000000000000000000000000000081526004016112cf9190611d3a565b60405180910390fd5b8060055f8573ffffffffffffffffffffffffffffffffffffffff1673ffffffffffffffffffffffffffffffffffffffff1681526020019081526020015f205f8473ffffffffffffffffffffffffffffffffffffffff1673ffffffffffffffffffffffffffffffffffffffff1681526020019081526020015f205f6101000a81548160ff0219169083151502179055508173ffffffffffffffffffffffffffffffffffffffff168373ffffffffffffffffffffffffffffffffffffffff167f17307eab39ab6107e8899845ad3d59bd9653f200f220920489ca2b5937696c31836040516113c49190611bda565b60405180910390a3505050565b5f8373ffffffffffffffffffffffffffffffffffffffff163b111561157d578273ffffffffffffffffffffffffffffffffffffffff1663150b7a02611414610f51565b8685856040518563ffffffff1660e01b81526004016114369493929190612721565b6020604051808303815f875af192505050801561147157506040513d601f19601f8201168201806040525081019061146e919061277f565b60015b6114f2573d805f811461149f576040519150601f19603f3d011682016040523d82523d5f602084013e6114a4565b606091505b505f8151036114ea57836040517f64a0ae920000000000000000000000000000000000000000000000000000000081526004016114e19190611d3a565b60405180910390fd5b805181602001fd5b63150b7a0260e01b7bffffffffffffffffffffffffffffffffffffffffffffffffffffffff1916817bffffffffffffffffffffffffffffffffffffffffffffffffffffffff19161461157b57836040517f64a0ae920000000000000000000000000000000000000000000000000000000081526004016115729190611d3a565b60405180910390fd5b505b50505050565b606060405180602001604052805f815250905090565b60605f60016115a78461191e565b0190505f8167ffffffffffffffff8111156115c5576115c4611e13565b5b6040519080825280601f01601f1916602001820160405280156115f75781602001600182028036833780820191505090505b5090505f82602001820190505b600115611658578080600190039150507f3031323334353637383961626364656600000000000000000000000000000000600a86061a8153600a858161164d5761164c6127aa565b5b0494505f8503611604575b819350505050919050565b5f60025f8381526020019081526020015f205f9054906101000a900473ffffffffffffffffffffffffffffffffffffffff169050919050565b80806116d457505f73ffffffffffffffffffffffffffffffffffffffff168273ffffffffffffffffffffffffffffffffffffffff1614155b15611806575f6116e384610e92565b90505f73ffffffffffffffffffffffffffffffffffffffff168373ffffffffffffffffffffffffffffffffffffffff161415801561174d57508273ffffffffffffffffffffffffffffffffffffffff168173ffffffffffffffffffffffffffffffffffffffff1614155b8015611760575061175e8184610d9b565b155b156117a257826040517fa9fbf51f0000000000000000000000000000000000000000000000000000000081526004016117999190611d3a565b60405180910390fd5b811561180457838573ffffffffffffffffffffffffffffffffffffffff168273ffffffffffffffffffffffffffffffffffffffff167f8c5be1e5ebec7d5bd14f71427d1e84f3dd0314c0f7b2291e5b200ac8c7c3b92560405160405180910390a45b505b8360045f8581526020019081526020015f205f6101000a81548173ffffffffffffffffffffffffffffffffffffffff021916908373ffffffffffffffffffffffffffffffffffffffff16021790555050505050565b611866838383611a6f565b611919575f73ffffffffffffffffffffffffffffffffffffffff168373ffffffffffffffffffffffffffffffffffffffff16036118da57806040517f7e2732890000000000000000000000000000000000000000000000000000000081526004016118d191906120f9565b60405180910390fd5b81816040517f177e802f0000000000000000000000000000000000000000000000000000000081526004016119109291906127d7565b60405180910390fd5b505050565b5f805f90507a184f03e93ff9f4daa797ed6e38ed64bf6a1f010000000000000000831061197a577a184f03e93ff9f4daa797ed6e38ed64bf6a1f01000000000000000083816119705761196f6127aa565b5b0492506040810190505b6d04ee2d6d415b85acef810000000083106119b7576d04ee2d6d415b85acef810000000083816119ad576119ac6127aa565b5b0492506020810190505b662386f26fc1000083106119e657662386f26fc1000083816119dc576119db6127aa565b5b0492506010810190505b6305f5e1008310611a0f576305f5e1008381611a0557611a046127aa565b5b0492506008810190505b6127108310611a34576127108381611a2a57611a296127aa565b5b0492506004810190505b60648310611a575760648381611a4d57611a4c6127aa565b5b0492506002810190505b600a8310611a66576001810190505b80915050919050565b5f8073ffffffffffffffffffffffffffffffffffffffff168373ffffffffffffffffffffffffffffffffffffffff1614158015611b2657508273ffffffffffffffffffffffffffffffffffffffff168473ffffffffffffffffffffffffffffffffffffffff161480611ae75750611ae68484610d9b565b5b80611b2557508273ffffffffffffffffffffffffffffffffffffffff16611b0d83610f18565b73ffffffffffffffffffffffffffffffffffffffff16145b5b90509392505050565b5f604051905090565b5f80fd5b5f80fd5b5f7fffffffff0000000000000000000000000000000000000000000000000000000082169050919050565b611b7481611b40565b8114611b7e575f80fd5b50565b5f81359050611b8f81611b6b565b92915050565b5f60208284031215611baa57611ba9611b38565b5b5f611bb784828501611b81565b91505092915050565b5f8115159050919050565b611bd481611bc0565b82525050565b5f602082019050611bed5f830184611bcb565b92915050565b5f81519050919050565b5f82825260208201905092915050565b5f5b83811015611c2a578082015181840152602081019050611c0f565b5f8484015250505050565b5f601f19601f8301169050919050565b5f611c4f82611bf3565b611c598185611bfd565b9350611c69818560208601611c0d565b611c7281611c35565b840191505092915050565b5f6020820190508181035f830152611c958184611c45565b905092915050565b5f819050919050565b611caf81611c9d565b8114611cb9575f80fd5b50565b5f81359050611cca81611ca6565b92915050565b5f60208284031215611ce557611ce4611b38565b5b5f611cf284828501611cbc565b91505092915050565b5f73ffffffffffffffffffffffffffffffffffffffff82169050919050565b5f611d2482611cfb565b9050919050565b611d3481611d1a565b82525050565b5f602082019050611d4d5f830184611d2b565b92915050565b611d5c81611d1a565b8114611d66575f80fd5b50565b5f81359050611d7781611d53565b92915050565b5f8060408385031215611d9357611d92611b38565b5b5f611da085828601611d69565b9250506020611db185828601611cbc565b9150509250929050565b5f805f60608486031215611dd257611dd1611b38565b5b5f611ddf86828701611d69565b9350506020611df086828701611d69565b9250506040611e0186828701611cbc565b9150509250925092565b5f80fd5b5f80fd5b7f4e487b71000000000000000000000000000000000000000000000000000000005f52604160045260245ffd5b611e4982611c35565b810181811067ffffffffffffffff82111715611e6857611e67611e13565b5b80604052505050565b5f611e7a611b2f565b9050611e868282611e40565b919050565b5f67ffffffffffffffff821115611ea557611ea4611e13565b5b611eae82611c35565b9050602081019050919050565b828183375f83830152505050565b5f611edb611ed684611e8b565b611e71565b905082815260208101848484011115611ef757611ef6611e0f565b5b611f02848285611ebb565b509392505050565b5f82601f830112611f1e57611f1d611e0b565b5b8135611f2e848260208601611ec9565b91505092915050565b5f805f805f805f805f6101208a8c031215611f5557611f54611b38565b5b5f611f628c828d01611d69565b9950506020611f738c828d01611cbc565b98505060408a013567ffffffffffffffff811115611f9457611f93611b3c565b5b611fa08c828d01611f0a565b97505060608a013567ffffffffffffffff811115611fc157611fc0611b3c565b5b611fcd8c828d01611f0a565b96505060808a013567ffffffffffffffff811115611fee57611fed611b3c565b5b611ffa8c828d01611f0a565b95505060a08a013567ffffffffffffffff81111561201b5761201a611b3c565b5b6120278c828d01611f0a565b94505060c08a013567ffffffffffffffff81111561204857612047611b3c565b5b6120548c828d01611f0a565b93505060e08a013567ffffffffffffffff81111561207557612074611b3c565b5b6120818c828d01611f0a565b9250506101008a013567ffffffffffffffff8111156120a3576120a2611b3c565b5b6120af8c828d01611f0a565b9150509295985092959850929598565b5f602082840312156120d4576120d3611b38565b5b5f6120e184828501611d69565b91505092915050565b6120f381611c9d565b82525050565b5f60208201905061210c5f8301846120ea565b92915050565b61211b81611bc0565b8114612125575f80fd5b50565b5f8135905061213681612112565b92915050565b5f806040838503121561215257612151611b38565b5b5f61215f85828601611d69565b925050602061217085828601612128565b9150509250929050565b5f60e0820190508181035f830152612192818a611c45565b905081810360208301526121a68189611c45565b905081810360408301526121ba8188611c45565b905081810360608301526121ce8187611c45565b905081810360808301526121e28186611c45565b905081810360a08301526121f68185611c45565b905081810360c083015261220a8184611c45565b905098975050505050505050565b5f67ffffffffffffffff82111561223257612231611e13565b5b61223b82611c35565b9050602081019050919050565b5f61225a61225584612218565b611e71565b90508281526020810184848401111561227657612275611e0f565b5b612281848285611ebb565b509392505050565b5f82601f83011261229d5761229c611e0b565b5b81356122ad848260208601612248565b91505092915050565b5f805f80608085870312156122ce576122cd611b38565b5b5f6122db87828801611d69565b94505060206122ec87828801611d69565b93505060406122fd87828801611cbc565b925050606085013567ffffffffffffffff81111561231e5761231d611b3c565b5b61232a87828801612289565b91505092959194509250565b5f806040838503121561234c5761234b611b38565b5b5f61235985828601611d69565b925050602061236a85828601611d69565b9150509250929050565b7f4e487b71000000000000000000000000000000000000000000000000000000005f52602260045260245ffd5b5f60028204905060018216806123b857607f821691505b6020821081036123cb576123ca612374565b5b50919050565b5f6060820190506123e45f830186611d2b565b6123f160208301856120ea565b6123fe6040830184611d2b565b949350505050565b5f819050815f5260205f209050919050565b5f6020601f8301049050919050565b5f82821b905092915050565b5f600883026124627fffffffffffffffffffffffffffffffffffffffffffffffffffffffffffffffff82612427565b61246c8683612427565b95508019841693508086168417925050509392505050565b5f819050919050565b5f6124a76124a261249d84611c9d565b612484565b611c9d565b9050919050565b5f819050919050565b6124c08361248d565b6124d46124cc826124ae565b848454612433565b825550505050565b5f90565b6124e86124dc565b6124f38184846124b7565b505050565b5b818110156125165761250b5f826124e0565b6001810190506124f9565b5050565b601f82111561255b5761252c81612406565b61253584612418565b81016020851015612544578190505b61255861255085612418565b8301826124f8565b50505b505050565b5f82821c905092915050565b5f61257b5f1984600802612560565b1980831691505092915050565b5f612593838361256c565b9150826002028217905092915050565b6125ac82611bf3565b67ffffffffffffffff8111156125c5576125c4611e13565b5b6125cf82546123a1565b6125da82828561251a565b5f60209050601f83116001811461260b575f84156125f9578287015190505b6126038582612588565b86555061266a565b601f19841661261986612406565b5f5b828110156126405784890151825560018201915060208501945060208101905061261b565b8683101561265d5784890151612659601f89168261256c565b8355505b6001600288020188555050505b505050505050565b5f81905092915050565b5f61268682611bf3565b6126908185612672565b93506126a0818560208601611c0d565b80840191505092915050565b5f6126b7828561267c565b91506126c3828461267c565b91508190509392505050565b5f81519050919050565b5f82825260208201905092915050565b5f6126f3826126cf565b6126fd81856126d9565b935061270d818560208601611c0d565b61271681611c35565b840191505092915050565b5f6080820190506127345f830187611d2b565b6127416020830186611d2b565b61274e60408301856120ea565b818103606083015261276081846126e9565b905095945050505050565b5f8151905061277981611b6b565b92915050565b5f6020828403121561279457612793611b38565b5b5f6127a18482850161276b565b91505092915050565b7f4e487b71000000000000000000000000000000000000000000000000000000005f52601260045260245ffd5b5f6040820190506127ea5f830185611d2b565b6127f760208301846120ea565b939250505056fea2646970667358221220e500666b8e23c9a59e0f1866a6ee0d6ea0412ca546429e2f72dbf965c4c5dc4e64736f6c63430008150033",
  "immutableReferences": {},
  "source": "// SPDX-License-Identifier: MIT\r\npragma solidity 0.8.21;\r\nimport \"@openzeppelin/contracts/token/ERC721/ERC721.sol\";\r\n\r\ncontract Ticket is ERC721 {\r\n    struct Details {\r\n        string eventname;\r\n        string date;\r\n        string location;\r\n        string tickettype;\r\n        string seatnumber;\r\n        string additonal_info;\r\n        string ipfs;\r\n    }\r\n    mapping(uint => Details) public _token;\r\n\r\n    constructor() ERC721(\"ticketsnft\", \"TKN\") {}\r\n\r\n    function transfer(\r\n        address to,\r\n        uint tokenId,\r\n        string memory evm,\r\n        string memory dat,\r\n        string memory loc,\r\n        string memory tic,\r\n        string memory seatnum,\r\n        string memory addinfo,\r\n        string memory ipfsno\r\n    ) external {\r\n        _mint(to, tokenId);\r\n        _token[tokenId] = Details(evm, dat, loc, tic, seatnum, addinfo, ipfsno);\r\n    }\r\n    // Function to get IPFS hash of metadata for a given token ID\r\n    function getTokenIPFSHash(\r\n        uint256 tokenId\r\n    ) external view returns (string memory) {\r\n        return _token[tokenId].ipfs;\r\n    }\r\n}\r\n",
  "sourcePath": "C:\\Users\\Aryan\\monkey\\contracts\\mong.sol",
  "compiler": {
    "name": "solc",
    "version": "0.8.21+commit.d9974bed.Emscripten.clang"
  },
  "schemaVersion": "3.4.16",
  "updatedAt": "2024-04-29T12:48:01.395Z",
  "devdoc": {
    "errors": {
      "ERC721IncorrectOwner(address,uint256,address)": [
        {
          "details": "Indicates an error related to the ownership over a particular token. Used in transfers.",
          "params": {
            "owner": "Address of the current owner of a token.",
            "sender": "Address whose tokens are being transferred.",
            "tokenId": "Identifier number of a token."
          }
        }
      ],
      "ERC721InsufficientApproval(address,uint256)": [
        {
          "details": "Indicates a failure with the `operator`s approval. Used in transfers.",
          "params": {
            "operator": "Address that may be allowed to operate on tokens without being their owner.",
            "tokenId": "Identifier number of a token."
          }
        }
      ],
      "ERC721InvalidApprover(address)": [
        {
          "details": "Indicates a failure with the `approver` of a token to be approved. Used in approvals.",
          "params": {
            "approver": "Address initiating an approval operation."
          }
        }
      ],
      "ERC721InvalidOperator(address)": [
        {
          "details": "Indicates a failure with the `operator` to be approved. Used in approvals.",
          "params": {
            "operator": "Address that may be allowed to operate on tokens without being their owner."
          }
        }
      ],
      "ERC721InvalidOwner(address)": [
        {
          "details": "Indicates that an address can't be an owner. For example, `address(0)` is a forbidden owner in EIP-20. Used in balance queries.",
          "params": {
            "owner": "Address of the current owner of a token."
          }
        }
      ],
      "ERC721InvalidReceiver(address)": [
        {
          "details": "Indicates a failure with the token `receiver`. Used in transfers.",
          "params": {
            "receiver": "Address to which tokens are being transferred."
          }
        }
      ],
      "ERC721InvalidSender(address)": [
        {
          "details": "Indicates a failure with the token `sender`. Used in transfers.",
          "params": {
            "sender": "Address whose tokens are being transferred."
          }
        }
      ],
      "ERC721NonexistentToken(uint256)": [
        {
          "details": "Indicates a `tokenId` whose `owner` is the zero address.",
          "params": {
            "tokenId": "Identifier number of a token."
          }
        }
      ]
    },
    "events": {
      "Approval(address,address,uint256)": {
        "details": "Emitted when `owner` enables `approved` to manage the `tokenId` token."
      },
      "ApprovalForAll(address,address,bool)": {
        "details": "Emitted when `owner` enables or disables (`approved`) `operator` to manage all of its assets."
      },
      "Transfer(address,address,uint256)": {
        "details": "Emitted when `tokenId` token is transferred from `from` to `to`."
      }
    },
    "kind": "dev",
    "methods": {
      "approve(address,uint256)": {
        "details": "See {IERC721-approve}."
      },
      "balanceOf(address)": {
        "details": "See {IERC721-balanceOf}."
      },
      "getApproved(uint256)": {
        "details": "See {IERC721-getApproved}."
      },
      "isApprovedForAll(address,address)": {
        "details": "See {IERC721-isApprovedForAll}."
      },
      "name()": {
        "details": "See {IERC721Metadata-name}."
      },
      "ownerOf(uint256)": {
        "details": "See {IERC721-ownerOf}."
      },
      "safeTransferFrom(address,address,uint256)": {
        "details": "See {IERC721-safeTransferFrom}."
      },
      "safeTransferFrom(address,address,uint256,bytes)": {
        "details": "See {IERC721-safeTransferFrom}."
      },
      "setApprovalForAll(address,bool)": {
        "details": "See {IERC721-setApprovalForAll}."
      },
      "supportsInterface(bytes4)": {
        "details": "See {IERC165-supportsInterface}."
      },
      "symbol()": {
        "details": "See {IERC721Metadata-symbol}."
      },
      "tokenURI(uint256)": {
        "details": "See {IERC721Metadata-tokenURI}."
      },
      "transferFrom(address,address,uint256)": {
        "details": "See {IERC721-transferFrom}."
      }
    },
    "version": 1
  },
  "userdoc": {
    "kind": "user",
    "methods": {},
    "version": 1
  }
}